S00F000064656E656D65322E7372656375
S113000071C000008FC000008DC000008BC00000D4
S113001089C0000087C0000085C0000083C00000C4
S113002081C000007FC000007DC000007BC00000D4
S113003079C0000077C0000075C0000073C00000E4
S113004071C00000BFC500006DC000006BC000009F
S113005069C0000067C0000065C0000063C0000004
S113006061C000005FC000005DC000005BC0000014
S113007059C00000CBC0000055C0000053C00000B0
S113008051C000004FC000004DC000004BC0000034
S113009049C0000047C0000045C0000043C0000044
S11300A041C000003FC000003DC000003BC0000054
S11300B039C0000037C0000035C0000033C0000064
S11300C031C000002FC000002DC000002BC0000074
S11300D029C0000027C0000025C0000023C0000084
S11300E021C0000011241FBECFEFD1E2DEBFCDBF7F
S11300F000E00CBF12E0A0E0B2E0EAE2F1E100E0CF
S11301000BBF02C007900D92AC30B107D9F722E0C3
S1130110ACE0B2E001C01D92A036B207E1F791D481
S11301200C9493086DCF4F925F926F927F92AF922F
S1130130BF92CF92DF92EF92FF920F931F93CF93D0
S1130140DF93CDB7DEB729013A019B01AC01241935
S11301503509460957098A899B89AC89BD89BC013F
S1130160CD016A197B098C099D0977D7A8019701EC
S11301702419350946095709A1D7C601B501620FEB
S1130180731F841F951FDF91CF911F910F91FF90D3
S1130190EF90DF90CF90BF90AF907F906F905F9083
S11301A04F90089580E480937C0087E880937A00E0
S11301B00895ECE7F0E09081907F8F70892B808325
S11301C0EAE7F0E080818064808380917A0086FD94
S11301D0FCCF8091780090917900089584B1806279
S11301E084B9E0E8F0E0808189688083E1E8F0E0A8
S11301F0808189608083109289001092880008951C
S113020090E0909389008093880008951F920F9244
S11302100FB60F9211248F939F9380917800909141
S1130220790090930D0280930C029F918F910F900F
S11302300FBE0F901F9018952F923F924F925F928E
S11302406F927F928F929F92AF92BF92CF92DF92E2
S1130250EF92FF920F931F93CF93DF93CDB7DEB747
S11302602E970FB6F894DEBF0FBECDBF8091560215
S113027090915702009709F447C1C9D46B017C01DE
S11302808091380290913902A0913A02B0913B02D8
S1130290B701A601481B590B6A0B7B0B80915802CE
S11302A090915902A0915A02B0915B0248175907E4
S11302B06A077B0708F426C180904A0290904B029B
S11302C0A0904C02B0904D0260911E0270911F02EA
S11302D08091200290912102A5019401A8D4698300
S11302E07A838B839C832091240230912502409150
S11302F0260250912702C501B40199D46D837E83EF
S11303008F839887209134023091350240913602D0
S11303105091370269817A818B819C813BD62091EF
S1130320460230914702409148025091490280D4DC
S11303302B013C016093460270934702809348026C
S11303409093490280914002909141029E878D874B
S1130350892BD1F4209152023091530240915402DE
S1130360509155026D817E818F81988513D69B01B2
S1130370AC01C301B2015BD460934602709347029F
S1130380809348029093490240904602509047025D
S11303906090480270904902309014022090150237
S11303A00091160210911702232D322D402F512F48
S11303B0C301B201EBD518166CF4832D922DA02F36
S11303C0B12F8093460290934702A0934802B093C2
S11303D049021FC08091180290911902A0911A023B
S11303E0B0911B0289879A87AB87BC879C01AD01BA
S11303F0C301B20181D4882364F489859A85AB85CD
S1130400BC858093460290934702A0934802B09320
S11304104902AD85BE85AB2B81F02091520230910B
S11304205302409154025091550269817A818B8123
S11304309C81B0D52B013C0103C0412C512C3201CD
S11304402091100230911102409112025091130236
S11304506D817E818F8198859DD59B01AC016091D2
S11304604602709147028091480290914902DFD37D
S11304709B01AC01C301B201DBD3662E7D8389836A
S1130480792E262F372F482F592F632D722D802F29
S1130490912F32D48823BCF0309018022090190296
S11304A000911A0210911B02232D322D402F512F3F
S11304B0662D7D818981972D1FD4882324F0362CC5
S11304C02D800981172D832D922DA02FB12F80937C
S11304D0280290932902A0932A02B0932B028092BF
S11304E0240290922502A0922602B0922702C09282
S11304F03802D0923902E0923A02F0923B0281E053
S113050090E002C080E090E02E960FB6F894DEBF33
S11305100FBECDBFDF91CF911F910F91FF90EF9050
S1130520DF90CF90BF90AF909F908F907F906F900F
S11305305F904F903F902F9008954F925F926F92EB
S11305407F928F929F92AF92BF92CF92DF92EF925F
S1130550FF920F931F93CF93DF9300D01F92CDB7D9
S1130560DEB74B015C0129013A01E982FA820B836F
S11305701C83D0920F02C0920E0281E090E0CA94D4
S1130580CD2811F080E090E09093410280934002E6
S113059080924E0290924F02A0925002B092510269
S11305A040923C0250923D0260923E0270923F02A1
S11305B089819A81AB81BC8180935C0290935D02B6
S11305C0A0935E02B0935F02609158027091590249
S11305D080915A0290915B0227D420E030E04AE7F0
S11305E054E48ED36B017C018092520290925302A8
S11305F0A0925402B09255029B01AC01C301B20116
S1130600C9D42B013C01609334027093350280936A
S1130610360290933702A701960169817A818B8112
S11306209C816ED36B017C01609310027093110264
S1130630809312029093130280912C0290912D02C8
S1130640019751F5A501940160E070E0CB01EFD270
S11306506093520270935302809354029093550214
S1130660A301920160E070E0CB01E1D26093340217
S1130670709335028093360290933702A701960156
S113068060E070E0CB01D3D260931002709311024A
S113069080931202909313020F900F900F900F907B
S11306A0DF91CF911F910F91FF90EF90DF90CF904A
S11306B0BF90AF909F908F907F906F905F904F907E
S11306C008954F925F926F927F928F929F92AF9212
S11306D0BF92CF92DF92EF92FF924B015C016901CE
S11306E07A0154D488230CF065C080921802909249
S11306F01902A0921A02B0921B02C0921402D09264
S11307001502E0921602F09217028091560290911F
S11307105702892B09F44EC04090280250902902B8
S113072060902A0270902B02A3019201C701B601C6
S1130730E3D288234CF4C0922802D0922902E0929A
S11307402A02F0922B020FC0A3019201C501B40149
S11307501DD4181644F48092280290922902A09283
S11307602A02B0922B0240904602509047026090B9
S1130770480270904902A3019201C701B601BCD29C
S113078088234CF4C0924602D0924702E092480279
S1130790F09249020FC0A3019201C501B401F6D33E
S11307A0181644F48092460290924702A09248029E
S11307B0B0924902FF90EF90DF90CF90BF90AF903E
S11307C09F908F907F906F905F904F9008958F923D
S11307D09F92AF92BF92CF92DF92EF92FF92C0901E
S11307E02802D0902902E0902A02F0902B02C092B5
S11307F04602D0924702E0924802F0924902809168
S11308004A0290914B02A0914C02B0914D02809308
S1130810240290932502A0932602B093270280908D
S1130820140290901502A0901602B0901702A50130
S11308309401C701B601AAD318164CF4809246025B
S113084090924702A0924802B092490217C0809049
S1130850180290901902A0901A02B0901B02A501F0
S11308609401C701B60148D2882344F48092460219
S113087090924702A0924802B0924902FF90EF90F2
S1130880DF90CF90BF90AF909F908F900895CF93BB
S1130890DF93C1E08130910509F0C0E0D0E0019719
S11308A039F48091560290915702892B09F48FDF15
S11308B0D0935702C0935602DF91CF910895CF93FE
S11308C0DF93EC018091560290915702892B09F431
S11308D044C080912C0290912D028C179D0709F43D
S11308E03CC02091520230915302409154025091E5
S11308F0550260E070E0CB019AD16093520270938C
S11309005302809354029093550220913402309103
S11309103502409136025091370260E070E0CB011D
S113092086D160933402709335028093360290939B
S1130930370220911002309111024091120250911D
S1130940130260E070E0CB0172D1609310027093E7
S113095011028093120290931302D0932D02C0933C
S11309602C02DF91CF9108954F925F926F927F9204
S1130970AF92BF92CF92DF92EF92FF920F931F93A9
S1130980CF93DF93CDB7DEB728970FB6F894DEBFC9
S11309900FBECDBF69837A838B839C8329013A017F
S11309A0ED82FE820F83188720E030E04FE753E4A6
S11309B060E070E0CB0185DE84E690E0A0E0B0E08A
S11309C08093580290935902A0935A02B0935B0209
S11309D0C50175DFED80FE800F811885A3019201AA
S11309E069817A818B819C81A8DD11D14090580264
S11309F05090590260905A0270905B02DC01CB0166
S1130A0084199509A609B70980933802909339028D
S1130A10A0933A02B0933B0228960FB6F894DEBF37
S1130A200FBECDBFDF91CF911F910F91FF90EF903B
S1130A30DF90CF90BF90AF907F906F905F904F907A
S1130A400895CF93DF9300D01F92CDB7DEB784B162
S1130A50806284B97894A6DBC1DB8DB180638DB9E3
S1130A608EB180628EB98EB18F7E8EB982E0A1DBA9
S1130A7090931D0280931C0281E09BDB90933302D0
S1130A808093320280E095DBBC0180E090E01F920D
S1130A901F921F922FEF2F93A12CB12C650111EC03
S1130AA0E12EFF24F39400E010E029E830E040E078
S1130AB050E039DB0F900F900F900F90B7D16093F7
S1130AC01E0270931F028093200290932102809152
S1130AD01C0290911D029C01990F440B550B298314
S1130AE03A834B835C834090320250903302052C4E
S1130AF0000C6608770881E05CDBBC0180E090E0D4
S1130B001F921F921F923FEF3F93E980FA800B815F
S1130B101C81A301920107DB0F900F900F900F909F
S1130B2085D160934A0270934B0280934C02909358
S1130B304D02E0900002F090010200910202109137
S1130B400302209104023091050240910602509163
S1130B500702609108027091090280910A02909143
S1130B600B02CC24C394D12CFFDE81E090E08FDE15
S1130B70C0900E02D0900F02E0900002F0900102AB
S1130B8000910202109103022091040230910502A7
S1130B904091060250910702609108027091090287
S1130BA080910A0290910B02C8DC46DB6091280216
S1130BB07091290280912A0290912B0209D1862FEB
S1130BC01FDB60CF1F920F920FB60F9211248F93E9
S1130BD09F93AF93BF9380912E0290912F02A09187
S1130BE03002B09131020196A11DB11D80932E02F5
S1130BF090932F02A0933002B0933102BF91AF9132
S1130C009F918F910F900FBE0F901F901895F8949D
S1130C1021E009C060912E0270912F028091300270
S1130C209091310220E02111F5CF78940895505825
S1130C30BB27AA270ED070C161D130F066D120F055
S1130C4031F49F3F11F41EF456C10EF4E095E7FB16
S1130C504CC1E92F72D180F3BA1762077307840776
S1130C60950718F071F49EF58AC10EF4E0950B2EE9
S1130C70BA2FA02D0B01B90190010C01CA01A001EA
S1130C801124FF27591B99F0593F50F4503E68F145
S1130C901A16F040A22F232F342F4427585FF3CF86
S1130CA0469537952795A795F0405395C9F77EF457
S1130CB01F16BA0B620B730B840BBAF09150A1F0A0
S1130CC0FF0FBB1F661F771F881FC2F70EC0BA0F26
S1130CD0621F731F841F48F4879577956795B795AE
S1130CE0F7959E3F08F0B3CF9395880F08F09927A6
S1130CF0EE0F979587950895D4D008F481E0089570
S1130D000CD00AC102D140F0F9D030F021F45F3F99
S1130D1019F0EBC0511134C1EEC00FD198F39923EF
S1130D20C9F35523B1F3951B550BBB27AA276217AB
S1130D307307840738F09F5F5F4F220F331F441FF0
S1130D40AA1FA9F333D00E2E3AF0E0E830D0915028
S1130D505040E695001CCAF729D0FE2F27D0660F15
S1130D60771F881FBB1F261737074807AB07B0E854
S1130D7009F0BB0B802DBF01FF2793585F4F2AF06A
S1130D809E3F510568F0B1C0FBC05F3FECF3983E55
S1130D90DCF3869577956795B795F7959F5FC9F7C7
S1130DA0880F911D9695879597F90895E1E0660F50
S1130DB0771F881FBB1F621773078407BA0720F0C9
S1130DC0621B730B840BBA0BEE1F88F7E095089532
S1130DD0BCD088F09F5790F0B92F9927B751A0F055
S1130DE0D1F0660F771F881F991F1AF0BA95C9F7BB
S1130DF012C0B13081F0C3D0B1E00895C0C0672FF4
S1130E00782F8827B85F39F0B93FCCF3869577956A
S1130E106795B395D9F73EF4909580957095619553
S1130E207F4F8F4F9F4F0895E89409C097FB3EF47E
S1130E3090958095709561957F4F8F4F9F4F992323
S1130E40A9F0F92F96E9BB279395F69587957795A1
S1130E506795B795F111F8CFFAF4BB0F11F460FF61
S1130E601BC06F5F7F4F8F4F9F4F16C0882311F0B9
S1130E7096E911C0772321F09EE8872F762F05C0CD
S1130E80662371F096E8862F70E060E02AF09A9568
S1130E90660F771F881FDAF7880F9695879597F95D
S1130EA00895990F0008550FAA0BE0E8FEEF1616F7
S1130EB01706E807F907C0F012161306E407F5074A
S1130EC098F0621B730B840B950B39F40A2661F0BE
S1130ED0232B242B252B21F408950A2609F4A14061
S1130EE0A6958FEF811D811D089597F99F6780E86E
S1130EF070E060E008959FEF80EC089500240A9468
S1130F001616170618060906089500240A941216E0
S1130F101306140605060895092E0394000C11F413
S1130F20882352F0BB0F40F4BF2B11F460FF04C0C0
S1130F306F5F7F4F8F4F9F4F089557FD9058440F19
S1130F40551F59F05F3F71F04795880F97FB991F24
S1130F5061F09F3F79F087950895121613061406E1
S1130F60551FF2CF4695F1DF08C01616170618066E
S1130F70991FF1CF86957105610508940895E89449
S1130F80BB2766277727CB0197F908958ADF08F4F2
S1130F908FEF08950BD0C0CFB1DF28F0B6DF18F083
S1130FA0952309F0A2CFA7CF1124EACFC6DFA0F37F
S1130FB0959FD1F3950F50E0551F629FF001729FEA
S1130FC0BB27F00DB11D639FAA27F00DB11DAA1F09
S1130FD0649F6627B00DA11D661F829F2227B00D56
S1130FE0A11D621F739FB00DA11D621F839FA00DE1
S1130FF0611D221F749F3327A00D611D231F849F31
S1131000600D211D822F762F6A2F11249F57504087
S11310108AF0E1F088234AF0EE0FFF1FBB1F661F22
S1131020771F881F91505040A9F79E3F510570F0DB
S11310305CCFA6CF5F3FECF3983EDCF386957795C3
S11310406795B795F795E7959F5FC1F7FE2B880FD6
S1131050911D9695879597F90895DB018F939F933A
S113106049D0BF91AF91A29F800D911DA39F900D78
S1131070B29F900D11240895A1E21A2EAA1BBB1B46
S1131080FD010DC0AA1FBB1FEE1FFF1FA217B30750
S1131090E407F50720F0A21BB30BE40BF50B661F66
S11310A0771F881F991F1A9469F76095709580952A
S11310B090959B01AC01BD01CF010895052E97FBCE
S11310C016F400940FD057FD05D0D6DF07FC02D0EC
S11310D046F408C050954095309521953F4F4F4FA9
S11310E05F4F089590958095709561957F4F8F4FD0
S11310F09F4F089509D0A59F900DB49F900DA49F74
S1131100800D911D11240895A29FB001B39FC001C9
S1131110A39F700D811D1124911DB29F700D811D1F
S10D11201124911D0895F894FFCFE7
S10F112A00002040CDCCCC3D0000104162
S9030000FC
